{
  "_format": "hh3-artifact-1",
  "contractName": "AaveVault",
  "sourceName": "contracts/AaveVault.sol",
  "abi": [
    {
      "inputs": [
        {
          "internalType": "address",
          "name": "_admin",
          "type": "address"
        },
        {
          "internalType": "address",
          "name": "_aavePool",
          "type": "address"
        },
        {
          "internalType": "address",
          "name": "_eurc",
          "type": "address"
        },
        {
          "internalType": "address",
          "name": "_aEurc",
          "type": "address"
        }
      ],
      "stateMutability": "nonpayable",
      "type": "constructor"
    },
    {
      "inputs": [],
      "name": "InsufficientBalance",
      "type": "error"
    },
    {
      "inputs": [
        {
          "internalType": "address",
          "name": "owner",
          "type": "address"
        }
      ],
      "name": "OwnableInvalidOwner",
      "type": "error"
    },
    {
      "inputs": [
        {
          "internalType": "address",
          "name": "account",
          "type": "address"
        }
      ],
      "name": "OwnableUnauthorizedAccount",
      "type": "error"
    },
    {
      "inputs": [],
      "name": "ReentrancyGuardReentrantCall",
      "type": "error"
    },
    {
      "inputs": [],
      "name": "ZeroAddress",
      "type": "error"
    },
    {
      "inputs": [],
      "name": "ZeroAmount",
      "type": "error"
    },
    {
      "anonymous": false,
      "inputs": [
        {
          "indexed": false,
          "internalType": "uint256",
          "name": "amount",
          "type": "uint256"
        }
      ],
      "name": "Deposited",
      "type": "event"
    },
    {
      "anonymous": false,
      "inputs": [
        {
          "indexed": true,
          "internalType": "address",
          "name": "previousOwner",
          "type": "address"
        },
        {
          "indexed": true,
          "internalType": "address",
          "name": "newOwner",
          "type": "address"
        }
      ],
      "name": "OwnershipTransferred",
      "type": "event"
    },
    {
      "anonymous": false,
      "inputs": [
        {
          "indexed": false,
          "internalType": "uint256",
          "name": "amount",
          "type": "uint256"
        }
      ],
      "name": "Withdrawn",
      "type": "event"
    },
    {
      "inputs": [],
      "name": "aEurc",
      "outputs": [
        {
          "internalType": "contract IERC20",
          "name": "",
          "type": "address"
        }
      ],
      "stateMutability": "view",
      "type": "function"
    },
    {
      "inputs": [],
      "name": "aavePool",
      "outputs": [
        {
          "internalType": "contract IPool",
          "name": "",
          "type": "address"
        }
      ],
      "stateMutability": "view",
      "type": "function"
    },
    {
      "inputs": [],
      "name": "addressesProvider",
      "outputs": [
        {
          "internalType": "contract IPoolAddressesProvider",
          "name": "",
          "type": "address"
        }
      ],
      "stateMutability": "view",
      "type": "function"
    },
    {
      "inputs": [
        {
          "internalType": "address",
          "name": "_pmo",
          "type": "address"
        },
        {
          "internalType": "uint256",
          "name": "_amount",
          "type": "uint256"
        }
      ],
      "name": "deposit",
      "outputs": [],
      "stateMutability": "nonpayable",
      "type": "function"
    },
    {
      "inputs": [],
      "name": "eurc",
      "outputs": [
        {
          "internalType": "contract IERC20",
          "name": "",
          "type": "address"
        }
      ],
      "stateMutability": "view",
      "type": "function"
    },
    {
      "inputs": [],
      "name": "getAavePosition",
      "outputs": [
        {
          "internalType": "uint256",
          "name": "",
          "type": "uint256"
        }
      ],
      "stateMutability": "view",
      "type": "function"
    },
    {
      "inputs": [
        {
          "internalType": "address",
          "name": "_pmo",
          "type": "address"
        }
      ],
      "name": "getPmoInfo",
      "outputs": [
        {
          "internalType": "uint256",
          "name": "pmoDeposited",
          "type": "uint256"
        },
        {
          "internalType": "uint256",
          "name": "pmoWithdrawn",
          "type": "uint256"
        }
      ],
      "stateMutability": "view",
      "type": "function"
    },
    {
      "inputs": [],
      "name": "owner",
      "outputs": [
        {
          "internalType": "address",
          "name": "",
          "type": "address"
        }
      ],
      "stateMutability": "view",
      "type": "function"
    },
    {
      "inputs": [
        {
          "internalType": "address",
          "name": "",
          "type": "address"
        }
      ],
      "name": "pmos",
      "outputs": [
        {
          "internalType": "bool",
          "name": "exists",
          "type": "bool"
        },
        {
          "internalType": "uint256",
          "name": "totalDeposited",
          "type": "uint256"
        },
        {
          "internalType": "uint256",
          "name": "totalWithdrawn",
          "type": "uint256"
        }
      ],
      "stateMutability": "view",
      "type": "function"
    },
    {
      "inputs": [],
      "name": "renounceOwnership",
      "outputs": [],
      "stateMutability": "nonpayable",
      "type": "function"
    },
    {
      "inputs": [],
      "name": "totalDeposited",
      "outputs": [
        {
          "internalType": "uint256",
          "name": "",
          "type": "uint256"
        }
      ],
      "stateMutability": "view",
      "type": "function"
    },
    {
      "inputs": [],
      "name": "totalWithdrawn",
      "outputs": [
        {
          "internalType": "uint256",
          "name": "",
          "type": "uint256"
        }
      ],
      "stateMutability": "view",
      "type": "function"
    },
    {
      "inputs": [
        {
          "internalType": "address",
          "name": "newOwner",
          "type": "address"
        }
      ],
      "name": "transferOwnership",
      "outputs": [],
      "stateMutability": "nonpayable",
      "type": "function"
    },
    {
      "inputs": [
        {
          "internalType": "address",
          "name": "_pmo",
          "type": "address"
        },
        {
          "internalType": "uint256",
          "name": "_amount",
          "type": "uint256"
        }
      ],
      "name": "withdraw",
      "outputs": [
        {
          "internalType": "uint256",
          "name": "amountWithdrawn",
          "type": "uint256"
        }
      ],
      "stateMutability": "nonpayable",
      "type": "function"
    }
  ],
  "bytecode": "0x610100604052348015610010575f5ffd5b50604051610c9d380380610c9d83398101604081905261002f91610228565b836001600160a01b03811661005d57604051631e4fbdf760e01b81525f600482015260240160405180910390fd5b610066816101be565b50600180556001600160a01b0384166100925760405163d92e233d60e01b815260040160405180910390fd5b6001600160a01b0382166100b95760405163d92e233d60e01b815260040160405180910390fd5b6001600160a01b0383166100e05760405163d92e233d60e01b815260040160405180910390fd5b6001600160a01b0381166101075760405163d92e233d60e01b815260040160405180910390fd5b6001600160a01b03831660e08190526040805163026b1d5f60e01b815290515f929163026b1d5f9160048083019260209291908290030181865afa158015610151573d5f5f3e3d5ffd5b505050506040513d601f19601f820116820180604052508101906101759190610279565b90506001600160a01b03811661019e5760405163d92e233d60e01b815260040160405180910390fd5b6001600160a01b0390811660c0529182166080521660a052506102999050565b5f80546001600160a01b038381166001600160a01b0319831681178455604051919092169283917f8be0079c531659141344cd1fd0a4f28419497f9722a3daafe3b4186f6b6457e09190a35050565b80516001600160a01b0381168114610223575f5ffd5b919050565b5f5f5f5f6080858703121561023b575f5ffd5b6102448561020d565b93506102526020860161020d565b92506102606040860161020d565b915061026e6060860161020d565b905092959194509250565b5f60208284031215610289575f5ffd5b6102928261020d565b9392505050565b60805160a05160c05160e0516109a16102fc5f395f61021501525f81816101ee01528181610303015281816103ef015261068101525f818161023c015261079801525f818160ee01528181610332015281816103b4015261064a01526109a15ff3fe608060405234801561000f575f5ffd5b50600436106100e5575f3560e01c8063a03e4bc311610088578063f2fde38b11610063578063f2fde38b1461025e578063f3fef3a314610271578063f9ec99ac14610284578063ff50abdc1461028c575f5ffd5b8063a03e4bc3146101e9578063c72c4d1014610210578063ce3d76dc14610237575f5ffd5b80634b319713116100c35780634b31971314610192578063516a0677146101a9578063715018a6146101d15780638da5cb5b146101d9575f5ffd5b806308d781ec146100e957806330fe5bfa1461012d57806347e7ef241461017d575b5f5ffd5b6101107f000000000000000000000000000000000000000000000000000000000000000081565b6040516001600160a01b0390911681526020015b60405180910390f35b61016061013b3660046108ce565b600260208190525f918252604090912080546001820154919092015460ff9092169183565b604080519315158452602084019290925290820152606001610124565b61019061018b3660046108ee565b610295565b005b61019b60045481565b604051908152602001610124565b6101bc6101b73660046108ce565b61050f565b60408051928352602083019190915201610124565b610190610586565b5f546001600160a01b0316610110565b6101107f000000000000000000000000000000000000000000000000000000000000000081565b6101107f000000000000000000000000000000000000000000000000000000000000000081565b6101107f000000000000000000000000000000000000000000000000000000000000000081565b61019061026c3660046108ce565b610599565b61019b61027f3660046108ee565b6105db565b61019b610781565b61019b60035481565b61029d61080e565b6102a561083a565b5f81116102c557604051631f2a200560e01b815260040160405180910390fd5b6001600160a01b0382166102ec5760405163d92e233d60e01b815260040160405180910390fd5b60405163095ea7b360e01b81526001600160a01b037f000000000000000000000000000000000000000000000000000000000000000081166004830152602482018390527f0000000000000000000000000000000000000000000000000000000000000000169063095ea7b3906044016020604051808303815f875af1158015610378573d5f5f3e3d5ffd5b505050506040513d601f19601f8201168201806040525081019061039c9190610916565b5060405163617ba03760e01b81526001600160a01b037f000000000000000000000000000000000000000000000000000000000000000081166004830152602482018390523060448301525f60648301527f0000000000000000000000000000000000000000000000000000000000000000169063617ba037906084015f604051808303815f87803b158015610430575f5ffd5b505af1158015610442573d5f5f3e3d5ffd5b505050506001600160a01b0382165f9081526002602052604090205460ff16610488576001600160a01b0382165f908152600260205260409020805460ff191660011790555b6001600160a01b0382165f90815260026020526040812060010180548392906104b2908490610935565b925050819055508060035f8282546104ca9190610935565b90915550506040518181527f2a89b2e3d580398d6dc2db5e0f336b52602bbaa51afa9bb5cdf59239cf0d2bea9060200160405180910390a161050b60018055565b5050565b5f5f61051961080e565b6001600160a01b0383166105405760405163d92e233d60e01b815260040160405180910390fd5b50506001600160a01b03165f908152600260208181526040928390208351606081018552815460ff16151581526001820154928101839052920154919092018190529091565b61058e61080e565b6105975f610864565b565b6105a161080e565b6001600160a01b0381166105cf57604051631e4fbdf760e01b81525f60048201526024015b60405180910390fd5b6105d881610864565b50565b5f6105e461080e565b6105ec61083a565b5f821161060c57604051631f2a200560e01b815260040160405180910390fd5b6001600160a01b0383166106335760405163d92e233d60e01b815260040160405180910390fd5b604051631a4ca37b60e21b81526001600160a01b037f0000000000000000000000000000000000000000000000000000000000000000811660048301526024820184905284811660448301527f000000000000000000000000000000000000000000000000000000000000000016906369328dec906064016020604051808303815f875af11580156106c7573d5f5f3e3d5ffd5b505050506040513d601f19601f820116820180604052508101906106eb9190610954565b90508160025f856001600160a01b03166001600160a01b031681526020019081526020015f206002015f8282546107229190610935565b925050819055508160045f82825461073a9190610935565b90915550506040518281527f430648de173157e069201c943adb2d4e340e7cf5b27b1b09c9cb852f03d63b569060200160405180910390a161077b60018055565b92915050565b6040516370a0823160e01b81523060048201525f907f00000000000000000000000000000000000000000000000000000000000000006001600160a01b0316906370a0823190602401602060405180830381865afa1580156107e5573d5f5f3e3d5ffd5b505050506040513d601f19601f820116820180604052508101906108099190610954565b905090565b5f546001600160a01b031633146105975760405163118cdaa760e01b81523360048201526024016105c6565b60026001540361085d57604051633ee5aeb560e01b815260040160405180910390fd5b6002600155565b5f80546001600160a01b038381166001600160a01b0319831681178455604051919092169283917f8be0079c531659141344cd1fd0a4f28419497f9722a3daafe3b4186f6b6457e09190a35050565b80356001600160a01b03811681146108c9575f5ffd5b919050565b5f602082840312156108de575f5ffd5b6108e7826108b3565b9392505050565b5f5f604083850312156108ff575f5ffd5b610908836108b3565b946020939093013593505050565b5f60208284031215610926575f5ffd5b815180151581146108e7575f5ffd5b8082018082111561077b57634e487b7160e01b5f52601160045260245ffd5b5f60208284031215610964575f5ffd5b505191905056fea264697066735822122020c5c7dc0648a99da06b79bc563600b655c41e85d30d3a0f47c57ad315f67d5664736f6c634300081c0033",
  "linkReferences": {},
  "deployedLinkReferences": {},
  "immutableReferences": {
    "338": [
      {
        "length": 32,
        "start": 238
      },
      {
        "length": 32,
        "start": 818
      },
      {
        "length": 32,
        "start": 948
      },
      {
        "length": 32,
        "start": 1610
      }
    ],
    "341": [
      {
        "length": 32,
        "start": 572
      },
      {
        "length": 32,
        "start": 1944
      }
    ],
    "344": [
      {
        "length": 32,
        "start": 494
      },
      {
        "length": 32,
        "start": 771
      },
      {
        "length": 32,
        "start": 1007
      },
      {
        "length": 32,
        "start": 1665
      }
    ],
    "347": [
      {
        "length": 32,
        "start": 533
      }
    ]
  },
  "inputSourceName": "project/contracts/AaveVault.sol",
  "buildInfoId": "solc-0_8_28-f0a99152558c4270629c5553a99ebc6c10ad9469"
}