{
  "_format": "hh3-artifact-1",
  "contractName": "EFT",
  "sourceName": "contracts/EFT.sol",
  "abi": [
    {
      "inputs": [
        {
          "internalType": "address",
          "name": "initialAdmin",
          "type": "address"
        }
      ],
      "stateMutability": "nonpayable",
      "type": "constructor"
    },
    {
      "inputs": [],
      "name": "AccessControlBadConfirmation",
      "type": "error"
    },
    {
      "inputs": [
        {
          "internalType": "address",
          "name": "account",
          "type": "address"
        },
        {
          "internalType": "bytes32",
          "name": "neededRole",
          "type": "bytes32"
        }
      ],
      "name": "AccessControlUnauthorizedAccount",
      "type": "error"
    },
    {
      "inputs": [
        {
          "internalType": "address",
          "name": "spender",
          "type": "address"
        },
        {
          "internalType": "uint256",
          "name": "allowance",
          "type": "uint256"
        },
        {
          "internalType": "uint256",
          "name": "needed",
          "type": "uint256"
        }
      ],
      "name": "ERC20InsufficientAllowance",
      "type": "error"
    },
    {
      "inputs": [
        {
          "internalType": "address",
          "name": "sender",
          "type": "address"
        },
        {
          "internalType": "uint256",
          "name": "balance",
          "type": "uint256"
        },
        {
          "internalType": "uint256",
          "name": "needed",
          "type": "uint256"
        }
      ],
      "name": "ERC20InsufficientBalance",
      "type": "error"
    },
    {
      "inputs": [
        {
          "internalType": "address",
          "name": "approver",
          "type": "address"
        }
      ],
      "name": "ERC20InvalidApprover",
      "type": "error"
    },
    {
      "inputs": [
        {
          "internalType": "address",
          "name": "receiver",
          "type": "address"
        }
      ],
      "name": "ERC20InvalidReceiver",
      "type": "error"
    },
    {
      "inputs": [
        {
          "internalType": "address",
          "name": "sender",
          "type": "address"
        }
      ],
      "name": "ERC20InvalidSender",
      "type": "error"
    },
    {
      "inputs": [
        {
          "internalType": "address",
          "name": "spender",
          "type": "address"
        }
      ],
      "name": "ERC20InvalidSpender",
      "type": "error"
    },
    {
      "anonymous": false,
      "inputs": [
        {
          "indexed": true,
          "internalType": "address",
          "name": "owner",
          "type": "address"
        },
        {
          "indexed": true,
          "internalType": "address",
          "name": "spender",
          "type": "address"
        },
        {
          "indexed": false,
          "internalType": "uint256",
          "name": "value",
          "type": "uint256"
        }
      ],
      "name": "Approval",
      "type": "event"
    },
    {
      "anonymous": false,
      "inputs": [
        {
          "indexed": true,
          "internalType": "address",
          "name": "account",
          "type": "address"
        },
        {
          "indexed": false,
          "internalType": "uint256",
          "name": "amount",
          "type": "uint256"
        }
      ],
      "name": "EnergyBurned",
      "type": "event"
    },
    {
      "anonymous": false,
      "inputs": [
        {
          "indexed": true,
          "internalType": "address",
          "name": "recipient",
          "type": "address"
        },
        {
          "indexed": false,
          "internalType": "uint256",
          "name": "amount",
          "type": "uint256"
        },
        {
          "indexed": false,
          "internalType": "string",
          "name": "meterId",
          "type": "string"
        }
      ],
      "name": "EnergyTokenized",
      "type": "event"
    },
    {
      "anonymous": false,
      "inputs": [
        {
          "indexed": true,
          "internalType": "bytes32",
          "name": "role",
          "type": "bytes32"
        },
        {
          "indexed": true,
          "internalType": "bytes32",
          "name": "previousAdminRole",
          "type": "bytes32"
        },
        {
          "indexed": true,
          "internalType": "bytes32",
          "name": "newAdminRole",
          "type": "bytes32"
        }
      ],
      "name": "RoleAdminChanged",
      "type": "event"
    },
    {
      "anonymous": false,
      "inputs": [
        {
          "indexed": true,
          "internalType": "bytes32",
          "name": "role",
          "type": "bytes32"
        },
        {
          "indexed": true,
          "internalType": "address",
          "name": "account",
          "type": "address"
        },
        {
          "indexed": true,
          "internalType": "address",
          "name": "sender",
          "type": "address"
        }
      ],
      "name": "RoleGranted",
      "type": "event"
    },
    {
      "anonymous": false,
      "inputs": [
        {
          "indexed": true,
          "internalType": "bytes32",
          "name": "role",
          "type": "bytes32"
        },
        {
          "indexed": true,
          "internalType": "address",
          "name": "account",
          "type": "address"
        },
        {
          "indexed": true,
          "internalType": "address",
          "name": "sender",
          "type": "address"
        }
      ],
      "name": "RoleRevoked",
      "type": "event"
    },
    {
      "anonymous": false,
      "inputs": [
        {
          "indexed": true,
          "internalType": "address",
          "name": "from",
          "type": "address"
        },
        {
          "indexed": true,
          "internalType": "address",
          "name": "to",
          "type": "address"
        },
        {
          "indexed": false,
          "internalType": "uint256",
          "name": "value",
          "type": "uint256"
        }
      ],
      "name": "Transfer",
      "type": "event"
    },
    {
      "inputs": [],
      "name": "DEFAULT_ADMIN_ROLE",
      "outputs": [
        {
          "internalType": "bytes32",
          "name": "",
          "type": "bytes32"
        }
      ],
      "stateMutability": "view",
      "type": "function"
    },
    {
      "inputs": [],
      "name": "MINTER_ROLE",
      "outputs": [
        {
          "internalType": "bytes32",
          "name": "",
          "type": "bytes32"
        }
      ],
      "stateMutability": "view",
      "type": "function"
    },
    {
      "inputs": [
        {
          "internalType": "address",
          "name": "owner",
          "type": "address"
        },
        {
          "internalType": "address",
          "name": "spender",
          "type": "address"
        }
      ],
      "name": "allowance",
      "outputs": [
        {
          "internalType": "uint256",
          "name": "",
          "type": "uint256"
        }
      ],
      "stateMutability": "view",
      "type": "function"
    },
    {
      "inputs": [
        {
          "internalType": "address",
          "name": "spender",
          "type": "address"
        },
        {
          "internalType": "uint256",
          "name": "value",
          "type": "uint256"
        }
      ],
      "name": "approve",
      "outputs": [
        {
          "internalType": "bool",
          "name": "",
          "type": "bool"
        }
      ],
      "stateMutability": "nonpayable",
      "type": "function"
    },
    {
      "inputs": [
        {
          "internalType": "address",
          "name": "account",
          "type": "address"
        }
      ],
      "name": "balanceOf",
      "outputs": [
        {
          "internalType": "uint256",
          "name": "",
          "type": "uint256"
        }
      ],
      "stateMutability": "view",
      "type": "function"
    },
    {
      "inputs": [
        {
          "internalType": "address",
          "name": "account",
          "type": "address"
        },
        {
          "internalType": "uint256",
          "name": "amount",
          "type": "uint256"
        }
      ],
      "name": "burnFrom",
      "outputs": [],
      "stateMutability": "nonpayable",
      "type": "function"
    },
    {
      "inputs": [],
      "name": "decimals",
      "outputs": [
        {
          "internalType": "uint8",
          "name": "",
          "type": "uint8"
        }
      ],
      "stateMutability": "view",
      "type": "function"
    },
    {
      "inputs": [
        {
          "internalType": "bytes32",
          "name": "role",
          "type": "bytes32"
        }
      ],
      "name": "getRoleAdmin",
      "outputs": [
        {
          "internalType": "bytes32",
          "name": "",
          "type": "bytes32"
        }
      ],
      "stateMutability": "view",
      "type": "function"
    },
    {
      "inputs": [
        {
          "internalType": "bytes32",
          "name": "role",
          "type": "bytes32"
        },
        {
          "internalType": "address",
          "name": "account",
          "type": "address"
        }
      ],
      "name": "grantRole",
      "outputs": [],
      "stateMutability": "nonpayable",
      "type": "function"
    },
    {
      "inputs": [
        {
          "internalType": "bytes32",
          "name": "role",
          "type": "bytes32"
        },
        {
          "internalType": "address",
          "name": "account",
          "type": "address"
        }
      ],
      "name": "hasRole",
      "outputs": [
        {
          "internalType": "bool",
          "name": "",
          "type": "bool"
        }
      ],
      "stateMutability": "view",
      "type": "function"
    },
    {
      "inputs": [
        {
          "internalType": "address",
          "name": "to",
          "type": "address"
        },
        {
          "internalType": "uint256",
          "name": "amount",
          "type": "uint256"
        },
        {
          "internalType": "string",
          "name": "meterId",
          "type": "string"
        }
      ],
      "name": "mint",
      "outputs": [],
      "stateMutability": "nonpayable",
      "type": "function"
    },
    {
      "inputs": [],
      "name": "name",
      "outputs": [
        {
          "internalType": "string",
          "name": "",
          "type": "string"
        }
      ],
      "stateMutability": "view",
      "type": "function"
    },
    {
      "inputs": [
        {
          "internalType": "bytes32",
          "name": "role",
          "type": "bytes32"
        },
        {
          "internalType": "address",
          "name": "callerConfirmation",
          "type": "address"
        }
      ],
      "name": "renounceRole",
      "outputs": [],
      "stateMutability": "nonpayable",
      "type": "function"
    },
    {
      "inputs": [
        {
          "internalType": "bytes32",
          "name": "role",
          "type": "bytes32"
        },
        {
          "internalType": "address",
          "name": "account",
          "type": "address"
        }
      ],
      "name": "revokeRole",
      "outputs": [],
      "stateMutability": "nonpayable",
      "type": "function"
    },
    {
      "inputs": [
        {
          "internalType": "bytes4",
          "name": "interfaceId",
          "type": "bytes4"
        }
      ],
      "name": "supportsInterface",
      "outputs": [
        {
          "internalType": "bool",
          "name": "",
          "type": "bool"
        }
      ],
      "stateMutability": "view",
      "type": "function"
    },
    {
      "inputs": [],
      "name": "symbol",
      "outputs": [
        {
          "internalType": "string",
          "name": "",
          "type": "string"
        }
      ],
      "stateMutability": "view",
      "type": "function"
    },
    {
      "inputs": [],
      "name": "totalSupply",
      "outputs": [
        {
          "internalType": "uint256",
          "name": "",
          "type": "uint256"
        }
      ],
      "stateMutability": "view",
      "type": "function"
    },
    {
      "inputs": [
        {
          "internalType": "address",
          "name": "to",
          "type": "address"
        },
        {
          "internalType": "uint256",
          "name": "value",
          "type": "uint256"
        }
      ],
      "name": "transfer",
      "outputs": [
        {
          "internalType": "bool",
          "name": "",
          "type": "bool"
        }
      ],
      "stateMutability": "nonpayable",
      "type": "function"
    },
    {
      "inputs": [
        {
          "internalType": "address",
          "name": "from",
          "type": "address"
        },
        {
          "internalType": "address",
          "name": "to",
          "type": "address"
        },
        {
          "internalType": "uint256",
          "name": "value",
          "type": "uint256"
        }
      ],
      "name": "transferFrom",
      "outputs": [
        {
          "internalType": "bool",
          "name": "",
          "type": "bool"
        }
      ],
      "stateMutability": "nonpayable",
      "type": "function"
    }
  ],
  "bytecode": "0x608060405234801561000f575f5ffd5b5060405161110b38038061110b83398101604081905261002e916101ab565b6040518060400160405280601181526020017022b732b933bc90233637bb902a37b5b2b760791b8152506040518060400160405280600381526020016211519560ea1b81525081600390816100839190610270565b5060046100908282610270565b5050506001600160a01b0381166100ed5760405162461bcd60e51b815260206004820152601b60248201527f454654203a2061646d696e206973207a65726f20616464726573730000000000604482015260640160405180910390fd5b6100f75f826100fe565b505061032a565b5f8281526005602090815260408083206001600160a01b038516845290915281205460ff166101a2575f8381526005602090815260408083206001600160a01b03861684529091529020805460ff1916600117905561015a3390565b6001600160a01b0316826001600160a01b0316847f2f8788117e7eff1d82e926ec794901d17c78024a50270940304540a733656f0d60405160405180910390a45060016101a5565b505f5b92915050565b5f602082840312156101bb575f5ffd5b81516001600160a01b03811681146101d1575f5ffd5b9392505050565b634e487b7160e01b5f52604160045260245ffd5b600181811c9082168061020057607f821691505b60208210810361021e57634e487b7160e01b5f52602260045260245ffd5b50919050565b601f82111561026b57805f5260205f20601f840160051c810160208510156102495750805b601f840160051c820191505b81811015610268575f8155600101610255565b50505b505050565b81516001600160401b03811115610289576102896101d8565b61029d8161029784546101ec565b84610224565b6020601f8211600181146102cf575f83156102b85750848201515b5f19600385901b1c1916600184901b178455610268565b5f84815260208120601f198516915b828110156102fe57878501518255602094850194600190920191016102de565b508482101561031b57868401515f19600387901b60f8161c191681555b50505050600190811b01905550565b610dd4806103375f395ff3fe608060405234801561000f575f5ffd5b506004361061011c575f3560e01c806370a08231116100a9578063a9059cbb1161006e578063a9059cbb1461024b578063d3fc98641461025e578063d539139314610271578063d547741f14610298578063dd62ed3e146102ab575f5ffd5b806370a08231146101ee57806379cc67901461021657806391d148541461022957806395d89b411461023c578063a217fddf14610244575f5ffd5b806323b872dd116100ef57806323b872dd14610182578063248a9ca3146101955780632f2ff15d146101b7578063313ce567146101cc57806336568abe146101db575f5ffd5b806301ffc9a71461012057806306fdde0314610148578063095ea7b31461015d57806318160ddd14610170575b5f5ffd5b61013361012e366004610b2d565b6102e3565b60405190151581526020015b60405180910390f35b610150610319565b60405161013f9190610b5b565b61013361016b366004610bab565b6103a9565b6002545b60405190815260200161013f565b610133610190366004610bd3565b6103c0565b6101746101a3366004610c0d565b5f9081526005602052604090206001015490565b6101ca6101c5366004610c24565b6103e3565b005b6040516012815260200161013f565b6101ca6101e9366004610c24565b61040d565b6101746101fc366004610c4e565b6001600160a01b03165f9081526020819052604090205490565b6101ca610224366004610bab565b610445565b610133610237366004610c24565b61051f565b610150610549565b6101745f81565b610133610259366004610bab565b610558565b6101ca61026c366004610c67565b610565565b6101747f9f2df0fed2c77648de5860a4cc508cd0818c85b8b8a1ab4ceeef8d981c8956a681565b6101ca6102a6366004610c24565b610683565b6101746102b9366004610cea565b6001600160a01b039182165f90815260016020908152604080832093909416825291909152205490565b5f6001600160e01b03198216637965db0b60e01b148061031357506301ffc9a760e01b6001600160e01b03198316145b92915050565b60606003805461032890610d12565b80601f016020809104026020016040519081016040528092919081815260200182805461035490610d12565b801561039f5780601f106103765761010080835404028352916020019161039f565b820191905f5260205f20905b81548152906001019060200180831161038257829003601f168201915b5050505050905090565b5f336103b68185856106a7565b5060019392505050565b5f336103cd8582856106b4565b6103d885858561072a565b506001949350505050565b5f828152600560205260409020600101546103fd81610787565b6104078383610794565b50505050565b6001600160a01b03811633146104365760405163334bd91960e11b815260040160405180910390fd5b6104408282610825565b505050565b7f9f2df0fed2c77648de5860a4cc508cd0818c85b8b8a1ab4ceeef8d981c8956a661046f81610787565b5f82116104cd5760405162461bcd60e51b815260206004820152602160248201527f4546543a206275726e20616d6f756e74206d75737420626520706f73697469766044820152606560f81b60648201526084015b60405180910390fd5b6104d78383610890565b826001600160a01b03167f8da6d17e802ac292840af62d33e64e00a377bf08c5407d11843e00764c582bc88360405161051291815260200190565b60405180910390a2505050565b5f9182526005602090815260408084206001600160a01b0393909316845291905290205460ff1690565b60606004805461032890610d12565b5f336103b681858561072a565b7f9f2df0fed2c77648de5860a4cc508cd0818c85b8b8a1ab4ceeef8d981c8956a661058f81610787565b5f84116105e85760405162461bcd60e51b815260206004820152602160248201527f4546543a206d696e7420616d6f756e74206d75737420626520706f73697469766044820152606560f81b60648201526084016104c4565b8161062d5760405162461bcd60e51b81526020600482015260156024820152741151950e881b595d195c9259081c995c5d5a5c9959605a1b60448201526064016104c4565b61063785856108c8565b846001600160a01b03167f197689a3662af162ff0bfbee3376f64598a3bacc3de22437e8dc6a355aaf751b85858560405161067493929190610d4a565b60405180910390a25050505050565b5f8281526005602052604090206001015461069d81610787565b6104078383610825565b61044083838360016108fc565b6001600160a01b038381165f908152600160209081526040808320938616835292905220545f19811015610407578181101561071c57604051637dc7a0d960e11b81526001600160a01b038416600482015260248101829052604481018390526064016104c4565b61040784848484035f6108fc565b6001600160a01b03831661075357604051634b637e8f60e11b81525f60048201526024016104c4565b6001600160a01b03821661077c5760405163ec442f0560e01b81525f60048201526024016104c4565b6104408383836109ce565b6107918133610af4565b50565b5f61079f838361051f565b61081e575f8381526005602090815260408083206001600160a01b03861684529091529020805460ff191660011790556107d63390565b6001600160a01b0316826001600160a01b0316847f2f8788117e7eff1d82e926ec794901d17c78024a50270940304540a733656f0d60405160405180910390a4506001610313565b505f610313565b5f610830838361051f565b1561081e575f8381526005602090815260408083206001600160a01b0386168085529252808320805460ff1916905551339286917ff6391f5c32d9c69d2a47ea670b442974b53935d1edc7fd64eb21e047a839171b9190a4506001610313565b6001600160a01b0382166108b957604051634b637e8f60e11b81525f60048201526024016104c4565b6108c4825f836109ce565b5050565b6001600160a01b0382166108f15760405163ec442f0560e01b81525f60048201526024016104c4565b6108c45f83836109ce565b6001600160a01b0384166109255760405163e602df0560e01b81525f60048201526024016104c4565b6001600160a01b03831661094e57604051634a1406b160e11b81525f60048201526024016104c4565b6001600160a01b038085165f908152600160209081526040808320938716835292905220829055801561040757826001600160a01b0316846001600160a01b03167f8c5be1e5ebec7d5bd14f71427d1e84f3dd0314c0f7b2291e5b200ac8c7c3b925846040516109c091815260200190565b60405180910390a350505050565b6001600160a01b0383166109f8578060025f8282546109ed9190610d7f565b90915550610a689050565b6001600160a01b0383165f9081526020819052604090205481811015610a4a5760405163391434e360e21b81526001600160a01b038516600482015260248101829052604481018390526064016104c4565b6001600160a01b0384165f9081526020819052604090209082900390555b6001600160a01b038216610a8457600280548290039055610aa2565b6001600160a01b0382165f9081526020819052604090208054820190555b816001600160a01b0316836001600160a01b03167fddf252ad1be2c89b69c2b068fc378daa952ba7f163c4a11628f55a4df523b3ef83604051610ae791815260200190565b60405180910390a3505050565b610afe828261051f565b6108c45760405163e2517d3f60e01b81526001600160a01b0382166004820152602481018390526044016104c4565b5f60208284031215610b3d575f5ffd5b81356001600160e01b031981168114610b54575f5ffd5b9392505050565b602081525f82518060208401528060208501604085015e5f604082850101526040601f19601f83011684010191505092915050565b80356001600160a01b0381168114610ba6575f5ffd5b919050565b5f5f60408385031215610bbc575f5ffd5b610bc583610b90565b946020939093013593505050565b5f5f5f60608486031215610be5575f5ffd5b610bee84610b90565b9250610bfc60208501610b90565b929592945050506040919091013590565b5f60208284031215610c1d575f5ffd5b5035919050565b5f5f60408385031215610c35575f5ffd5b82359150610c4560208401610b90565b90509250929050565b5f60208284031215610c5e575f5ffd5b610b5482610b90565b5f5f5f5f60608587031215610c7a575f5ffd5b610c8385610b90565b935060208501359250604085013567ffffffffffffffff811115610ca5575f5ffd5b8501601f81018713610cb5575f5ffd5b803567ffffffffffffffff811115610ccb575f5ffd5b876020828401011115610cdc575f5ffd5b949793965060200194505050565b5f5f60408385031215610cfb575f5ffd5b610d0483610b90565b9150610c4560208401610b90565b600181811c90821680610d2657607f821691505b602082108103610d4457634e487b7160e01b5f52602260045260245ffd5b50919050565b83815260406020820152816040820152818360608301375f818301606090810191909152601f909201601f1916010192915050565b8082018082111561031357634e487b7160e01b5f52601160045260245ffdfea26469706673582212201a9b44dca69195538aa64f5e07ab1dced3395c568e9f0e5a09ade1372137bdb064736f6c634300081c0033",
  "linkReferences": {},
  "deployedLinkReferences": {},
  "immutableReferences": {},
  "inputSourceName": "project/contracts/EFT.sol",
  "buildInfoId": "solc-0_8_28-fc9063525d96d92ae1059c5f8df5876164041dfc"
}