{
  "_format": "hh3-artifact-1",
  "contractName": "PricingDAO",
  "sourceName": "contracts/PricingDAO.sol",
  "abi": [
    {
      "inputs": [
        {
          "internalType": "address",
          "name": "_initialAdmin",
          "type": "address"
        },
        {
          "internalType": "uint256",
          "name": "_initialPrice",
          "type": "uint256"
        }
      ],
      "stateMutability": "nonpayable",
      "type": "constructor"
    },
    {
      "inputs": [],
      "name": "AccessControlBadConfirmation",
      "type": "error"
    },
    {
      "inputs": [
        {
          "internalType": "address",
          "name": "account",
          "type": "address"
        },
        {
          "internalType": "bytes32",
          "name": "neededRole",
          "type": "bytes32"
        }
      ],
      "name": "AccessControlUnauthorizedAccount",
      "type": "error"
    },
    {
      "inputs": [],
      "name": "AlreadyVoted",
      "type": "error"
    },
    {
      "inputs": [],
      "name": "InsufficientMembers",
      "type": "error"
    },
    {
      "inputs": [],
      "name": "InvalidAddress",
      "type": "error"
    },
    {
      "inputs": [],
      "name": "InvalidPrice",
      "type": "error"
    },
    {
      "inputs": [],
      "name": "InvalidVoteChoice",
      "type": "error"
    },
    {
      "inputs": [],
      "name": "InvalidWorkflowStatus",
      "type": "error"
    },
    {
      "inputs": [],
      "name": "MemberAlreadyExists",
      "type": "error"
    },
    {
      "inputs": [],
      "name": "MemberNotFound",
      "type": "error"
    },
    {
      "inputs": [],
      "name": "NoActiveProposal",
      "type": "error"
    },
    {
      "inputs": [],
      "name": "ProposalAlreadyApplied",
      "type": "error"
    },
    {
      "inputs": [],
      "name": "ProposalAlreadyExists",
      "type": "error"
    },
    {
      "inputs": [],
      "name": "VotingInProgress",
      "type": "error"
    },
    {
      "anonymous": false,
      "inputs": [
        {
          "indexed": true,
          "internalType": "address",
          "name": "member",
          "type": "address"
        },
        {
          "indexed": false,
          "internalType": "bool",
          "name": "isProducer",
          "type": "bool"
        }
      ],
      "name": "MemberAdded",
      "type": "event"
    },
    {
      "anonymous": false,
      "inputs": [
        {
          "indexed": true,
          "internalType": "address",
          "name": "member",
          "type": "address"
        },
        {
          "indexed": false,
          "internalType": "bool",
          "name": "wasProducer",
          "type": "bool"
        }
      ],
      "name": "MemberRemoved",
      "type": "event"
    },
    {
      "anonymous": false,
      "inputs": [
        {
          "indexed": true,
          "internalType": "uint256",
          "name": "proposalId",
          "type": "uint256"
        },
        {
          "indexed": false,
          "internalType": "uint256",
          "name": "oldPrice",
          "type": "uint256"
        },
        {
          "indexed": false,
          "internalType": "uint256",
          "name": "newPrice",
          "type": "uint256"
        }
      ],
      "name": "PriceChanged",
      "type": "event"
    },
    {
      "anonymous": false,
      "inputs": [
        {
          "indexed": true,
          "internalType": "uint256",
          "name": "proposalId",
          "type": "uint256"
        },
        {
          "indexed": false,
          "internalType": "uint256",
          "name": "pricePerKWh",
          "type": "uint256"
        }
      ],
      "name": "ProposalCreated",
      "type": "event"
    },
    {
      "anonymous": false,
      "inputs": [
        {
          "indexed": true,
          "internalType": "bytes32",
          "name": "role",
          "type": "bytes32"
        },
        {
          "indexed": true,
          "internalType": "bytes32",
          "name": "previousAdminRole",
          "type": "bytes32"
        },
        {
          "indexed": true,
          "internalType": "bytes32",
          "name": "newAdminRole",
          "type": "bytes32"
        }
      ],
      "name": "RoleAdminChanged",
      "type": "event"
    },
    {
      "anonymous": false,
      "inputs": [
        {
          "indexed": true,
          "internalType": "bytes32",
          "name": "role",
          "type": "bytes32"
        },
        {
          "indexed": true,
          "internalType": "address",
          "name": "account",
          "type": "address"
        },
        {
          "indexed": true,
          "internalType": "address",
          "name": "sender",
          "type": "address"
        }
      ],
      "name": "RoleGranted",
      "type": "event"
    },
    {
      "anonymous": false,
      "inputs": [
        {
          "indexed": true,
          "internalType": "bytes32",
          "name": "role",
          "type": "bytes32"
        },
        {
          "indexed": true,
          "internalType": "address",
          "name": "account",
          "type": "address"
        },
        {
          "indexed": true,
          "internalType": "address",
          "name": "sender",
          "type": "address"
        }
      ],
      "name": "RoleRevoked",
      "type": "event"
    },
    {
      "anonymous": false,
      "inputs": [
        {
          "indexed": true,
          "internalType": "uint256",
          "name": "proposalId",
          "type": "uint256"
        },
        {
          "indexed": true,
          "internalType": "address",
          "name": "voter",
          "type": "address"
        },
        {
          "indexed": false,
          "internalType": "bool",
          "name": "isProducer",
          "type": "bool"
        },
        {
          "indexed": false,
          "internalType": "enum PricingDAO.VoteChoice",
          "name": "choice",
          "type": "uint8"
        }
      ],
      "name": "VoteCast",
      "type": "event"
    },
    {
      "anonymous": false,
      "inputs": [
        {
          "indexed": false,
          "internalType": "enum PricingDAO.WorkflowStatus",
          "name": "previousStatus",
          "type": "uint8"
        },
        {
          "indexed": false,
          "internalType": "enum PricingDAO.WorkflowStatus",
          "name": "newStatus",
          "type": "uint8"
        }
      ],
      "name": "WorkflowStatusChange",
      "type": "event"
    },
    {
      "inputs": [],
      "name": "ADMIN_ROLE",
      "outputs": [
        {
          "internalType": "bytes32",
          "name": "",
          "type": "bytes32"
        }
      ],
      "stateMutability": "view",
      "type": "function"
    },
    {
      "inputs": [],
      "name": "DEFAULT_ADMIN_ROLE",
      "outputs": [
        {
          "internalType": "bytes32",
          "name": "",
          "type": "bytes32"
        }
      ],
      "stateMutability": "view",
      "type": "function"
    },
    {
      "inputs": [],
      "name": "MEMBER_ROLE",
      "outputs": [
        {
          "internalType": "bytes32",
          "name": "",
          "type": "bytes32"
        }
      ],
      "stateMutability": "view",
      "type": "function"
    },
    {
      "inputs": [],
      "name": "activeProposalId",
      "outputs": [
        {
          "internalType": "uint256",
          "name": "",
          "type": "uint256"
        }
      ],
      "stateMutability": "view",
      "type": "function"
    },
    {
      "inputs": [
        {
          "internalType": "address",
          "name": "_member",
          "type": "address"
        },
        {
          "internalType": "bool",
          "name": "_isProducer",
          "type": "bool"
        }
      ],
      "name": "addMember",
      "outputs": [],
      "stateMutability": "nonpayable",
      "type": "function"
    },
    {
      "inputs": [],
      "name": "consumersCount",
      "outputs": [
        {
          "internalType": "uint256",
          "name": "",
          "type": "uint256"
        }
      ],
      "stateMutability": "view",
      "type": "function"
    },
    {
      "inputs": [
        {
          "internalType": "uint256",
          "name": "_pricePerKWh",
          "type": "uint256"
        }
      ],
      "name": "createProposal",
      "outputs": [],
      "stateMutability": "nonpayable",
      "type": "function"
    },
    {
      "inputs": [],
      "name": "currentPrice",
      "outputs": [
        {
          "internalType": "uint256",
          "name": "",
          "type": "uint256"
        }
      ],
      "stateMutability": "view",
      "type": "function"
    },
    {
      "inputs": [],
      "name": "endProposalRegistration",
      "outputs": [],
      "stateMutability": "nonpayable",
      "type": "function"
    },
    {
      "inputs": [],
      "name": "endVotingSession",
      "outputs": [],
      "stateMutability": "nonpayable",
      "type": "function"
    },
    {
      "inputs": [],
      "name": "executeProposal",
      "outputs": [],
      "stateMutability": "nonpayable",
      "type": "function"
    },
    {
      "inputs": [],
      "name": "getMembers",
      "outputs": [
        {
          "internalType": "address[]",
          "name": "",
          "type": "address[]"
        }
      ],
      "stateMutability": "view",
      "type": "function"
    },
    {
      "inputs": [],
      "name": "getMembersCount",
      "outputs": [
        {
          "internalType": "uint256",
          "name": "",
          "type": "uint256"
        }
      ],
      "stateMutability": "view",
      "type": "function"
    },
    {
      "inputs": [
        {
          "internalType": "uint256",
          "name": "_proposalId",
          "type": "uint256"
        }
      ],
      "name": "getProposal",
      "outputs": [
        {
          "components": [
            {
              "internalType": "uint256",
              "name": "pricePerKWh",
              "type": "uint256"
            },
            {
              "internalType": "bool",
              "name": "applied",
              "type": "bool"
            },
            {
              "internalType": "uint256",
              "name": "snapshotProducersCount",
              "type": "uint256"
            },
            {
              "internalType": "uint256",
              "name": "snapshotConsumersCount",
              "type": "uint256"
            },
            {
              "internalType": "uint256",
              "name": "producersVotedFor",
              "type": "uint256"
            },
            {
              "internalType": "uint256",
              "name": "producersVotedAgainst",
              "type": "uint256"
            },
            {
              "internalType": "uint256",
              "name": "consumersVotedFor",
              "type": "uint256"
            },
            {
              "internalType": "uint256",
              "name": "consumersVotedAgainst",
              "type": "uint256"
            }
          ],
          "internalType": "struct PricingDAO.PriceProposal",
          "name": "",
          "type": "tuple"
        }
      ],
      "stateMutability": "view",
      "type": "function"
    },
    {
      "inputs": [
        {
          "internalType": "bytes32",
          "name": "role",
          "type": "bytes32"
        }
      ],
      "name": "getRoleAdmin",
      "outputs": [
        {
          "internalType": "bytes32",
          "name": "",
          "type": "bytes32"
        }
      ],
      "stateMutability": "view",
      "type": "function"
    },
    {
      "inputs": [
        {
          "internalType": "uint256",
          "name": "_proposalId",
          "type": "uint256"
        },
        {
          "internalType": "address",
          "name": "_voter",
          "type": "address"
        }
      ],
      "name": "getVote",
      "outputs": [
        {
          "internalType": "enum PricingDAO.VoteChoice",
          "name": "",
          "type": "uint8"
        }
      ],
      "stateMutability": "view",
      "type": "function"
    },
    {
      "inputs": [
        {
          "internalType": "bytes32",
          "name": "role",
          "type": "bytes32"
        },
        {
          "internalType": "address",
          "name": "account",
          "type": "address"
        }
      ],
      "name": "grantRole",
      "outputs": [],
      "stateMutability": "nonpayable",
      "type": "function"
    },
    {
      "inputs": [],
      "name": "hasActiveProposal",
      "outputs": [
        {
          "internalType": "bool",
          "name": "",
          "type": "bool"
        }
      ],
      "stateMutability": "view",
      "type": "function"
    },
    {
      "inputs": [
        {
          "internalType": "bytes32",
          "name": "role",
          "type": "bytes32"
        },
        {
          "internalType": "address",
          "name": "account",
          "type": "address"
        }
      ],
      "name": "hasRole",
      "outputs": [
        {
          "internalType": "bool",
          "name": "",
          "type": "bool"
        }
      ],
      "stateMutability": "view",
      "type": "function"
    },
    {
      "inputs": [
        {
          "internalType": "address",
          "name": "",
          "type": "address"
        }
      ],
      "name": "isConsumer",
      "outputs": [
        {
          "internalType": "bool",
          "name": "",
          "type": "bool"
        }
      ],
      "stateMutability": "view",
      "type": "function"
    },
    {
      "inputs": [
        {
          "internalType": "address",
          "name": "",
          "type": "address"
        }
      ],
      "name": "isProducer",
      "outputs": [
        {
          "internalType": "bool",
          "name": "",
          "type": "bool"
        }
      ],
      "stateMutability": "view",
      "type": "function"
    },
    {
      "inputs": [],
      "name": "producersCount",
      "outputs": [
        {
          "internalType": "uint256",
          "name": "",
          "type": "uint256"
        }
      ],
      "stateMutability": "view",
      "type": "function"
    },
    {
      "inputs": [],
      "name": "proposalCounter",
      "outputs": [
        {
          "internalType": "uint256",
          "name": "",
          "type": "uint256"
        }
      ],
      "stateMutability": "view",
      "type": "function"
    },
    {
      "inputs": [
        {
          "internalType": "uint256",
          "name": "",
          "type": "uint256"
        }
      ],
      "name": "proposals",
      "outputs": [
        {
          "internalType": "uint256",
          "name": "pricePerKWh",
          "type": "uint256"
        },
        {
          "internalType": "bool",
          "name": "applied",
          "type": "bool"
        },
        {
          "internalType": "uint256",
          "name": "snapshotProducersCount",
          "type": "uint256"
        },
        {
          "internalType": "uint256",
          "name": "snapshotConsumersCount",
          "type": "uint256"
        },
        {
          "internalType": "uint256",
          "name": "producersVotedFor",
          "type": "uint256"
        },
        {
          "internalType": "uint256",
          "name": "producersVotedAgainst",
          "type": "uint256"
        },
        {
          "internalType": "uint256",
          "name": "consumersVotedFor",
          "type": "uint256"
        },
        {
          "internalType": "uint256",
          "name": "consumersVotedAgainst",
          "type": "uint256"
        }
      ],
      "stateMutability": "view",
      "type": "function"
    },
    {
      "inputs": [
        {
          "internalType": "address",
          "name": "_member",
          "type": "address"
        }
      ],
      "name": "removeMember",
      "outputs": [],
      "stateMutability": "nonpayable",
      "type": "function"
    },
    {
      "inputs": [
        {
          "internalType": "bytes32",
          "name": "role",
          "type": "bytes32"
        },
        {
          "internalType": "address",
          "name": "callerConfirmation",
          "type": "address"
        }
      ],
      "name": "renounceRole",
      "outputs": [],
      "stateMutability": "nonpayable",
      "type": "function"
    },
    {
      "inputs": [],
      "name": "resetWorkflow",
      "outputs": [],
      "stateMutability": "nonpayable",
      "type": "function"
    },
    {
      "inputs": [
        {
          "internalType": "bytes32",
          "name": "role",
          "type": "bytes32"
        },
        {
          "internalType": "address",
          "name": "account",
          "type": "address"
        }
      ],
      "name": "revokeRole",
      "outputs": [],
      "stateMutability": "nonpayable",
      "type": "function"
    },
    {
      "inputs": [],
      "name": "startProposalRegistration",
      "outputs": [],
      "stateMutability": "nonpayable",
      "type": "function"
    },
    {
      "inputs": [],
      "name": "startVotingSession",
      "outputs": [],
      "stateMutability": "nonpayable",
      "type": "function"
    },
    {
      "inputs": [
        {
          "internalType": "bytes4",
          "name": "interfaceId",
          "type": "bytes4"
        }
      ],
      "name": "supportsInterface",
      "outputs": [
        {
          "internalType": "bool",
          "name": "",
          "type": "bool"
        }
      ],
      "stateMutability": "view",
      "type": "function"
    },
    {
      "inputs": [
        {
          "internalType": "enum PricingDAO.VoteChoice",
          "name": "_choice",
          "type": "uint8"
        }
      ],
      "name": "vote",
      "outputs": [],
      "stateMutability": "nonpayable",
      "type": "function"
    },
    {
      "inputs": [
        {
          "internalType": "uint256",
          "name": "",
          "type": "uint256"
        },
        {
          "internalType": "address",
          "name": "",
          "type": "address"
        }
      ],
      "name": "votes",
      "outputs": [
        {
          "internalType": "enum PricingDAO.VoteChoice",
          "name": "",
          "type": "uint8"
        }
      ],
      "stateMutability": "view",
      "type": "function"
    },
    {
      "inputs": [],
      "name": "workflowStatus",
      "outputs": [
        {
          "internalType": "enum PricingDAO.WorkflowStatus",
          "name": "",
          "type": "uint8"
        }
      ],
      "stateMutability": "view",
      "type": "function"
    }
  ],
  "bytecode": "0x608060405234801561000f575f5ffd5b506040516131f03803806131f0833981810160405281019061003191906102df565b5f73ffffffffffffffffffffffffffffffffffffffff168273ffffffffffffffffffffffffffffffffffffffff1603610096576040517fe6c4247b00000000000000000000000000000000000000000000000000000000815260040160405180910390fd5b5f81036100ce576040517ebfc92100000000000000000000000000000000000000000000000000000000815260040160405180910390fd5b6100e05f5f1b836100ef60201b60201c565b5080600181905550505061031d565b5f61010083836101e460201b60201c565b6101da5760015f5f8581526020019081526020015f205f015f8473ffffffffffffffffffffffffffffffffffffffff1673ffffffffffffffffffffffffffffffffffffffff1681526020019081526020015f205f6101000a81548160ff02191690831515021790555061017761024760201b60201c565b73ffffffffffffffffffffffffffffffffffffffff168273ffffffffffffffffffffffffffffffffffffffff16847f2f8788117e7eff1d82e926ec794901d17c78024a50270940304540a733656f0d60405160405180910390a4600190506101de565b5f90505b92915050565b5f5f5f8481526020019081526020015f205f015f8373ffffffffffffffffffffffffffffffffffffffff1673ffffffffffffffffffffffffffffffffffffffff1681526020019081526020015f205f9054906101000a900460ff16905092915050565b5f33905090565b5f5ffd5b5f73ffffffffffffffffffffffffffffffffffffffff82169050919050565b5f61027b82610252565b9050919050565b61028b81610271565b8114610295575f5ffd5b50565b5f815190506102a681610282565b92915050565b5f819050919050565b6102be816102ac565b81146102c8575f5ffd5b50565b5f815190506102d9816102b5565b92915050565b5f5f604083850312156102f5576102f461024e565b5b5f61030285828601610298565b9250506020610313858286016102cb565b9150509250929050565b612ec68061032a5f395ff3fe608060405234801561000f575f5ffd5b5060043610610204575f3560e01c80639eab525311610118578063c7f758a8116100ab578063e53142e21161007a578063e53142e2146105a7578063e85a8f2a146105c5578063eb2ada8c146105cf578063ee74c678146105ed578063f5521022146105f757610204565b8063c7f758a81461050f578063c9030ea01461053f578063d23254b41461055b578063d547741f1461058b57610204565b8063a7bfab16116100e7578063a7bfab161461049b578063a81160c0146104a5578063b3f98adc146104c3578063bc3f931f146104df57610204565b80639eab525314610423578063a10f469e14610441578063a1edffa21461045f578063a217fddf1461047d57610204565b80632f2ff15d1161019b5780635a43dc001161016a5780635a43dc001461036b57806375b238fc14610387578063834ff739146103a557806391d14854146103d55780639d1b464a1461040557610204565b80632f2ff15d1461030b57806336568abe14610327578063373058b8146103435780634657558a1461034d57610204565b80630c0512e9116101d75780630c0512e9146102a95780630f7e2838146102c7578063181cca1b146102d1578063248a9ca3146102db57610204565b8063013cf08b1461020857806301ffc9a71461023f57806309772f8f1461026f5780630b1ca49a1461028d575b5f5ffd5b610222600480360381019061021d9190612593565b610627565b6040516102369897969594939291906125e7565b60405180910390f35b610259600480360381019061025491906126b8565b610677565b60405161026691906126e3565b60405180910390f35b6102776106f0565b60405161028491906126fc565b60405180910390f35b6102a760048036038101906102a2919061276f565b6106fc565b005b6102b1610bca565b6040516102be91906126fc565b60405180910390f35b6102cf610bd0565b005b6102d9610cae565b005b6102f560048036038101906102f091906127cd565b610d8b565b6040516103029190612807565b60405180910390f35b61032560048036038101906103209190612820565b610da7565b005b610341600480360381019061033c9190612820565b610dc9565b005b61034b610e44565b005b6103556110d1565b60405161036291906126fc565b60405180910390f35b61038560048036038101906103809190612593565b6110d7565b005b61038f6112c4565b60405161039c9190612807565b60405180910390f35b6103bf60048036038101906103ba919061276f565b6112ca565b6040516103cc91906126e3565b60405180910390f35b6103ef60048036038101906103ea9190612820565b6112e7565b6040516103fc91906126e3565b60405180910390f35b61040d61134a565b60405161041a91906126fc565b60405180910390f35b61042b611350565b6040516104389190612915565b60405180910390f35b6104496113db565b6040516104569190612807565b60405180910390f35b6104676113ff565b60405161047491906129a8565b60405180910390f35b610485611411565b6040516104929190612807565b60405180910390f35b6104a3611417565b005b6104ad6114f7565b6040516104ba91906126fc565b60405180910390f35b6104dd60048036038101906104d891906129e4565b6114fd565b005b6104f960048036038101906104f49190612a0f565b611a60565b6040516105069190612a93565b60405180910390f35b61052960048036038101906105249190612593565b611ac2565b6040516105369190612b6a565b60405180910390f35b61055960048036038101906105549190612bae565b611b4d565b005b61057560048036038101906105709190612a0f565b611f07565b6040516105829190612a93565b60405180910390f35b6105a560048036038101906105a09190612820565b611f31565b005b6105af611f53565b6040516105bc91906126fc565b60405180910390f35b6105cd611f59565b005b6105d7612039565b6040516105e491906126e3565b60405180910390f35b6105f561204b565b005b610611600480360381019061060c919061276f565b612170565b60405161061e91906126e3565b60405180910390f35b6008602052805f5260405f205f91509050805f015490806001015f9054906101000a900460ff16908060020154908060030154908060040154908060050154908060060154908060070154905088565b5f7f7965db0b000000000000000000000000000000000000000000000000000000007bffffffffffffffffffffffffffffffffffffffffffffffffffffffff1916827bffffffffffffffffffffffffffffffffffffffffffffffffffffffff191614806106e957506106e88261218d565b5b9050919050565b5f600c80549050905090565b5f5f1b610708816121f6565b6003600581111561071c5761071b612935565b5b60075f9054906101000a900460ff16600581111561073d5761073c612935565b5b03610774576040517f1182db3500000000000000000000000000000000000000000000000000000000815260040160405180910390fd5b60095f8373ffffffffffffffffffffffffffffffffffffffff1673ffffffffffffffffffffffffffffffffffffffff1681526020019081526020015f205f9054906101000a900460ff168061080f5750600a5f8373ffffffffffffffffffffffffffffffffffffffff1673ffffffffffffffffffffffffffffffffffffffff1681526020019081526020015f205f9054906101000a900460ff165b610845576040517f1fdd7d6300000000000000000000000000000000000000000000000000000000815260040160405180910390fd5b5f60095f8473ffffffffffffffffffffffffffffffffffffffff1673ffffffffffffffffffffffffffffffffffffffff1681526020019081526020015f205f9054906101000a900460ff1690506108bc7f829b824e2329e205435d941c9f13baf578548505283d29261236d8e6596d46368461220a565b508015610933575f60095f8573ffffffffffffffffffffffffffffffffffffffff1673ffffffffffffffffffffffffffffffffffffffff1681526020019081526020015f205f6101000a81548160ff02191690831515021790555060055f81548092919061092990612c19565b919050555061099f565b5f600a5f8573ffffffffffffffffffffffffffffffffffffffff1673ffffffffffffffffffffffffffffffffffffffff1681526020019081526020015f205f6101000a81548160ff02191690831515021790555060065f81548092919061099990612c19565b91905055505b5f6001600d5f8673ffffffffffffffffffffffffffffffffffffffff1673ffffffffffffffffffffffffffffffffffffffff1681526020019081526020015f20546109ea9190612c40565b90505f6001600c805490506109ff9190612c40565b9050808214610af1575f600c8281548110610a1d57610a1c612c73565b5b905f5260205f20015f9054906101000a900473ffffffffffffffffffffffffffffffffffffffff16905080600c8481548110610a5c57610a5b612c73565b5b905f5260205f20015f6101000a81548173ffffffffffffffffffffffffffffffffffffffff021916908373ffffffffffffffffffffffffffffffffffffffff160217905550600183610aae9190612ca0565b600d5f8373ffffffffffffffffffffffffffffffffffffffff1673ffffffffffffffffffffffffffffffffffffffff1681526020019081526020015f2081905550505b600c805480610b0357610b02612cd3565b5b600190038181905f5260205f20015f6101000a81549073ffffffffffffffffffffffffffffffffffffffff02191690559055600d5f8673ffffffffffffffffffffffffffffffffffffffff1673ffffffffffffffffffffffffffffffffffffffff1681526020019081526020015f205f90558473ffffffffffffffffffffffffffffffffffffffff167f37b9658cf696c8de5ebfbddcdae226c1b882700104f47435a8b5a15954f107bc84604051610bbb91906126e3565b60405180910390a25050505050565b60025481565b5f5f1b610bdc816121f6565b5f6005811115610bef57610bee612935565b5b60075f9054906101000a900460ff166005811115610c1057610c0f612935565b5b14610c47576040517f8224b17600000000000000000000000000000000000000000000000000000000815260040160405180910390fd5b600160075f6101000a81548160ff02191690836005811115610c6c57610c6b612935565b5b02179055507f0a97a4ee45751e2abf3e4fc8946939630b11b371ea8ae39ccdc3056e98f5cc3f5f6001604051610ca3929190612d00565b60405180910390a150565b5f5f1b610cba816121f6565b600580811115610ccd57610ccc612935565b5b60075f9054906101000a900460ff166005811115610cee57610ced612935565b5b14610d25576040517f8224b17600000000000000000000000000000000000000000000000000000000815260040160405180910390fd5b5f60075f6101000a81548160ff02191690836005811115610d4957610d48612935565b5b02179055507f0a97a4ee45751e2abf3e4fc8946939630b11b371ea8ae39ccdc3056e98f5cc3f60055f604051610d80929190612d00565b60405180910390a150565b5f5f5f8381526020019081526020015f20600101549050919050565b610db082610d8b565b610db9816121f6565b610dc383836122f3565b50505050565b610dd16123dc565b73ffffffffffffffffffffffffffffffffffffffff168173ffffffffffffffffffffffffffffffffffffffff1614610e35576040517f6697b23200000000000000000000000000000000000000000000000000000000815260040160405180910390fd5b610e3f828261220a565b505050565b5f5f1b610e50816121f6565b60046005811115610e6457610e63612935565b5b60075f9054906101000a900460ff166005811115610e8557610e84612935565b5b14610ebc576040517f8224b17600000000000000000000000000000000000000000000000000000000815260040160405180910390fd5b60045f9054906101000a900460ff16610f01576040517f3dc1d21400000000000000000000000000000000000000000000000000000000815260040160405180910390fd5b5f60085f60035481526020019081526020015f209050806001015f9054906101000a900460ff1615610f5f576040517fe3a105f800000000000000000000000000000000000000000000000000000000815260040160405180910390fd5b6001816001015f6101000a81548160ff0219169083151502179055505f60045f6101000a81548160ff0219169083151502179055505f5f61100a83604051806101000160405290815f8201548152602001600182015f9054906101000a900460ff1615151515815260200160028201548152602001600382015481526020016004820154815260200160058201548152602001600682015481526020016007820154815250506123e3565b915091505f60015490508183111561106557835f01546001819055506003547f2bce37c591c5b0d254c3056688b080a088f160fff82b6e79f456c8a20d5570f68260015460405161105c929190612d27565b60405180910390a25b600560075f6101000a81548160ff0219169083600581111561108a57611089612935565b5b02179055507f0a97a4ee45751e2abf3e4fc8946939630b11b371ea8ae39ccdc3056e98f5cc3f600460056040516110c2929190612d00565b60405180910390a15050505050565b60065481565b5f5f1b6110e3816121f6565b600160058111156110f7576110f6612935565b5b60075f9054906101000a900460ff16600581111561111857611117612935565b5b1461114f576040517f8224b17600000000000000000000000000000000000000000000000000000000815260040160405180910390fd5b5f8203611187576040517ebfc92100000000000000000000000000000000000000000000000000000000815260040160405180910390fd5b60045f9054906101000a900460ff16156111cd576040517fb8c39e6200000000000000000000000000000000000000000000000000000000815260040160405180910390fd5b5f600554141580156111e157505f60065414155b611217576040517fe2155f6900000000000000000000000000000000000000000000000000000000815260040160405180910390fd5b60025f81548092919061122990612d4e565b9190505550600254600381905550600160045f6101000a81548160ff0219169083151502179055505f60085f60025481526020019081526020015f20905082815f0181905550600554816002018190555060065481600301819055506002547ffcf3b1aa65a464cef2889608f99e8b8c0f680a4be6c2acb9d961c536a5a9294b846040516112b791906126fc565b60405180910390a2505050565b5f5f1b81565b600a602052805f5260405f205f915054906101000a900460ff1681565b5f5f5f8481526020019081526020015f205f015f8373ffffffffffffffffffffffffffffffffffffffff1673ffffffffffffffffffffffffffffffffffffffff1681526020019081526020015f205f9054906101000a900460ff16905092915050565b60015481565b6060600c8054806020026020016040519081016040528092919081815260200182805480156113d157602002820191905f5260205f20905b815f9054906101000a900473ffffffffffffffffffffffffffffffffffffffff1673ffffffffffffffffffffffffffffffffffffffff1681526020019060010190808311611388575b5050505050905090565b7f829b824e2329e205435d941c9f13baf578548505283d29261236d8e6596d463681565b60075f9054906101000a900460ff1681565b5f5f1b81565b5f5f1b611423816121f6565b6003600581111561143757611436612935565b5b60075f9054906101000a900460ff16600581111561145857611457612935565b5b1461148f576040517f8224b17600000000000000000000000000000000000000000000000000000000815260040160405180910390fd5b600460075f6101000a81548160ff021916908360058111156114b4576114b3612935565b5b02179055507f0a97a4ee45751e2abf3e4fc8946939630b11b371ea8ae39ccdc3056e98f5cc3f600360046040516114ec929190612d00565b60405180910390a150565b60035481565b7f829b824e2329e205435d941c9f13baf578548505283d29261236d8e6596d4636611527816121f6565b6003600581111561153b5761153a612935565b5b60075f9054906101000a900460ff16600581111561155c5761155b612935565b5b14611593576040517f8224b17600000000000000000000000000000000000000000000000000000000815260040160405180910390fd5b60045f9054906101000a900460ff166115d8576040517f3dc1d21400000000000000000000000000000000000000000000000000000000815260040160405180910390fd5b5f60038111156115eb576115ea612935565b5b8260038111156115fe576115fd612935565b5b03611635576040517fc945806200000000000000000000000000000000000000000000000000000000815260040160405180910390fd5b5f600381111561164857611647612935565b5b600b5f60035481526020019081526020015f205f3373ffffffffffffffffffffffffffffffffffffffff1673ffffffffffffffffffffffffffffffffffffffff1681526020019081526020015f205f9054906101000a900460ff1660038111156116b5576116b4612935565b5b146116ec576040517f7c9a1cf900000000000000000000000000000000000000000000000000000000815260040160405180910390fd5b81600b5f60035481526020019081526020015f205f3373ffffffffffffffffffffffffffffffffffffffff1673ffffffffffffffffffffffffffffffffffffffff1681526020019081526020015f205f6101000a81548160ff0219169083600381111561175c5761175b612935565b5b02179055505f60095f3373ffffffffffffffffffffffffffffffffffffffff1673ffffffffffffffffffffffffffffffffffffffff1681526020019081526020015f205f9054906101000a900460ff1690506003808111156117c1576117c0612935565b5b8360038111156117d4576117d3612935565b5b03611832573373ffffffffffffffffffffffffffffffffffffffff166003547f15f1e70b8b13b82c540b23353dea8245580a988eb3db42333f0c797f8ce219698386604051611824929190612d95565b60405180910390a350611a5c565b5f60085f60035481526020019081526020015f2090505f6001600381111561185d5761185c612935565b5b8560038111156118705761186f612935565b5b14905082801561187d5750805b156118f757816004015f81548092919061189690612d4e565b91905055503373ffffffffffffffffffffffffffffffffffffffff166003547f15f1e70b8b13b82c540b23353dea8245580a988eb3db42333f0c797f8ce219696001886040516118e7929190612d95565b60405180910390a3505050611a5c565b821561197257816005015f81548092919061191190612d4e565b91905055503373ffffffffffffffffffffffffffffffffffffffff166003547f15f1e70b8b13b82c540b23353dea8245580a988eb3db42333f0c797f8ce21969600188604051611962929190612d95565b60405180910390a3505050611a5c565b80156119ec57816006015f81548092919061198c90612d4e565b91905055503373ffffffffffffffffffffffffffffffffffffffff166003547f15f1e70b8b13b82c540b23353dea8245580a988eb3db42333f0c797f8ce219695f886040516119dc929190612d95565b60405180910390a3505050611a5c565b816007015f815480929190611a0090612d4e565b91905055503373ffffffffffffffffffffffffffffffffffffffff166003547f15f1e70b8b13b82c540b23353dea8245580a988eb3db42333f0c797f8ce219695f88604051611a50929190612d95565b60405180910390a35050505b5050565b5f600b5f8481526020019081526020015f205f8373ffffffffffffffffffffffffffffffffffffffff1673ffffffffffffffffffffffffffffffffffffffff1681526020019081526020015f205f9054906101000a900460ff16905092915050565b611aca61251d565b60085f8381526020019081526020015f20604051806101000160405290815f8201548152602001600182015f9054906101000a900460ff1615151515815260200160028201548152602001600382015481526020016004820154815260200160058201548152602001600682015481526020016007820154815250509050919050565b5f5f1b611b59816121f6565b60036005811115611b6d57611b6c612935565b5b60075f9054906101000a900460ff166005811115611b8e57611b8d612935565b5b03611bc5576040517f1182db3500000000000000000000000000000000000000000000000000000000815260040160405180910390fd5b5f73ffffffffffffffffffffffffffffffffffffffff168373ffffffffffffffffffffffffffffffffffffffff1603611c2a576040517fe6c4247b00000000000000000000000000000000000000000000000000000000815260040160405180910390fd5b60095f8473ffffffffffffffffffffffffffffffffffffffff1673ffffffffffffffffffffffffffffffffffffffff1681526020019081526020015f205f9054906101000a900460ff16158015611cc85750600a5f8473ffffffffffffffffffffffffffffffffffffffff1673ffffffffffffffffffffffffffffffffffffffff1681526020019081526020015f205f9054906101000a900460ff16155b611cfe576040517fe015095200000000000000000000000000000000000000000000000000000000815260040160405180910390fd5b611d287f829b824e2329e205435d941c9f13baf578548505283d29261236d8e6596d4636846122f3565b508115611da057600160095f8573ffffffffffffffffffffffffffffffffffffffff1673ffffffffffffffffffffffffffffffffffffffff1681526020019081526020015f205f6101000a81548160ff02191690831515021790555060055f815480929190611d9690612d4e565b9190505550611e0d565b6001600a5f8573ffffffffffffffffffffffffffffffffffffffff1673ffffffffffffffffffffffffffffffffffffffff1681526020019081526020015f205f6101000a81548160ff02191690831515021790555060065f815480929190611e0790612d4e565b91905055505b600c83908060018154018082558091505060019003905f5260205f20015f9091909190916101000a81548173ffffffffffffffffffffffffffffffffffffffff021916908373ffffffffffffffffffffffffffffffffffffffff160217905550600c80549050600d5f8573ffffffffffffffffffffffffffffffffffffffff1673ffffffffffffffffffffffffffffffffffffffff1681526020019081526020015f20819055508273ffffffffffffffffffffffffffffffffffffffff167f0921f8ec3cb5073e49c3f14b82dd034849c260d1b3449ba592cea4a52f37373383604051611efa91906126e3565b60405180910390a2505050565b600b602052815f5260405f20602052805f5260405f205f915091509054906101000a900460ff1681565b611f3a82610d8b565b611f43816121f6565b611f4d838361220a565b50505050565b60055481565b5f5f1b611f65816121f6565b60016005811115611f7957611f78612935565b5b60075f9054906101000a900460ff166005811115611f9a57611f99612935565b5b14611fd1576040517f8224b17600000000000000000000000000000000000000000000000000000000815260040160405180910390fd5b600260075f6101000a81548160ff02191690836005811115611ff657611ff5612935565b5b02179055507f0a97a4ee45751e2abf3e4fc8946939630b11b371ea8ae39ccdc3056e98f5cc3f6001600260405161202e929190612d00565b60405180910390a150565b60045f9054906101000a900460ff1681565b5f5f1b612057816121f6565b6002600581111561206b5761206a612935565b5b60075f9054906101000a900460ff16600581111561208c5761208b612935565b5b146120c3576040517f8224b17600000000000000000000000000000000000000000000000000000000815260040160405180910390fd5b60045f9054906101000a900460ff16612108576040517f3dc1d21400000000000000000000000000000000000000000000000000000000815260040160405180910390fd5b600360075f6101000a81548160ff0219169083600581111561212d5761212c612935565b5b02179055507f0a97a4ee45751e2abf3e4fc8946939630b11b371ea8ae39ccdc3056e98f5cc3f60026003604051612165929190612d00565b60405180910390a150565b6009602052805f5260405f205f915054906101000a900460ff1681565b5f7f01ffc9a7000000000000000000000000000000000000000000000000000000007bffffffffffffffffffffffffffffffffffffffffffffffffffffffff1916827bffffffffffffffffffffffffffffffffffffffffffffffffffffffff1916149050919050565b612207816122026123dc565b6124cc565b50565b5f61221583836112e7565b156122e9575f5f5f8581526020019081526020015f205f015f8473ffffffffffffffffffffffffffffffffffffffff1673ffffffffffffffffffffffffffffffffffffffff1681526020019081526020015f205f6101000a81548160ff0219169083151502179055506122866123dc565b73ffffffffffffffffffffffffffffffffffffffff168273ffffffffffffffffffffffffffffffffffffffff16847ff6391f5c32d9c69d2a47ea670b442974b53935d1edc7fd64eb21e047a839171b60405160405180910390a4600190506122ed565b5f90505b92915050565b5f6122fe83836112e7565b6123d25760015f5f8581526020019081526020015f205f015f8473ffffffffffffffffffffffffffffffffffffffff1673ffffffffffffffffffffffffffffffffffffffff1681526020019081526020015f205f6101000a81548160ff02191690831515021790555061236f6123dc565b73ffffffffffffffffffffffffffffffffffffffff168273ffffffffffffffffffffffffffffffffffffffff16847f2f8788117e7eff1d82e926ec794901d17c78024a50270940304540a733656f0d60405160405180910390a4600190506123d6565b5f90505b92915050565b5f33905090565b5f5f5f8360a0015184608001516123fa9190612ca0565b90505f5f5f831115612445578261138887608001516124199190612dbc565b6124239190612e2a565b9150826113888760a001516124389190612dbc565b6124429190612e2a565b90505b5f8660e001518760c0015161245a9190612ca0565b90505f5f5f8311156124a557826113888a60c001516124799190612dbc565b6124839190612e2a565b9150826113888a60e001516124989190612dbc565b6124a29190612e2a565b90505b81856124b19190612ca0565b975080846124bf9190612ca0565b9650505050505050915091565b6124d682826112e7565b6125195780826040517fe2517d3f000000000000000000000000000000000000000000000000000000008152600401612510929190612e69565b60405180910390fd5b5050565b6040518061010001604052805f81526020015f151581526020015f81526020015f81526020015f81526020015f81526020015f81526020015f81525090565b5f5ffd5b5f819050919050565b61257281612560565b811461257c575f5ffd5b50565b5f8135905061258d81612569565b92915050565b5f602082840312156125a8576125a761255c565b5b5f6125b58482850161257f565b91505092915050565b6125c781612560565b82525050565b5f8115159050919050565b6125e1816125cd565b82525050565b5f610100820190506125fb5f83018b6125be565b612608602083018a6125d8565b61261560408301896125be565b61262260608301886125be565b61262f60808301876125be565b61263c60a08301866125be565b61264960c08301856125be565b61265660e08301846125be565b9998505050505050505050565b5f7fffffffff0000000000000000000000000000000000000000000000000000000082169050919050565b61269781612663565b81146126a1575f5ffd5b50565b5f813590506126b28161268e565b92915050565b5f602082840312156126cd576126cc61255c565b5b5f6126da848285016126a4565b91505092915050565b5f6020820190506126f65f8301846125d8565b92915050565b5f60208201905061270f5f8301846125be565b92915050565b5f73ffffffffffffffffffffffffffffffffffffffff82169050919050565b5f61273e82612715565b9050919050565b61274e81612734565b8114612758575f5ffd5b50565b5f8135905061276981612745565b92915050565b5f602082840312156127845761278361255c565b5b5f6127918482850161275b565b91505092915050565b5f819050919050565b6127ac8161279a565b81146127b6575f5ffd5b50565b5f813590506127c7816127a3565b92915050565b5f602082840312156127e2576127e161255c565b5b5f6127ef848285016127b9565b91505092915050565b6128018161279a565b82525050565b5f60208201905061281a5f8301846127f8565b92915050565b5f5f604083850312156128365761283561255c565b5b5f612843858286016127b9565b92505060206128548582860161275b565b9150509250929050565b5f81519050919050565b5f82825260208201905092915050565b5f819050602082019050919050565b61289081612734565b82525050565b5f6128a18383612887565b60208301905092915050565b5f602082019050919050565b5f6128c38261285e565b6128cd8185612868565b93506128d883612878565b805f5b838110156129085781516128ef8882612896565b97506128fa836128ad565b9250506001810190506128db565b5085935050505092915050565b5f6020820190508181035f83015261292d81846128b9565b905092915050565b7f4e487b71000000000000000000000000000000000000000000000000000000005f52602160045260245ffd5b6006811061297357612972612935565b5b50565b5f81905061298382612962565b919050565b5f61299282612976565b9050919050565b6129a281612988565b82525050565b5f6020820190506129bb5f830184612999565b92915050565b600481106129cd575f5ffd5b50565b5f813590506129de816129c1565b92915050565b5f602082840312156129f9576129f861255c565b5b5f612a06848285016129d0565b91505092915050565b5f5f60408385031215612a2557612a2461255c565b5b5f612a328582860161257f565b9250506020612a438582860161275b565b9150509250929050565b60048110612a5e57612a5d612935565b5b50565b5f819050612a6e82612a4d565b919050565b5f612a7d82612a61565b9050919050565b612a8d81612a73565b82525050565b5f602082019050612aa65f830184612a84565b92915050565b612ab581612560565b82525050565b612ac4816125cd565b82525050565b61010082015f820151612adf5f850182612aac565b506020820151612af26020850182612abb565b506040820151612b056040850182612aac565b506060820151612b186060850182612aac565b506080820151612b2b6080850182612aac565b5060a0820151612b3e60a0850182612aac565b5060c0820151612b5160c0850182612aac565b5060e0820151612b6460e0850182612aac565b50505050565b5f61010082019050612b7e5f830184612aca565b92915050565b612b8d816125cd565b8114612b97575f5ffd5b50565b5f81359050612ba881612b84565b92915050565b5f5f60408385031215612bc457612bc361255c565b5b5f612bd18582860161275b565b9250506020612be285828601612b9a565b9150509250929050565b7f4e487b71000000000000000000000000000000000000000000000000000000005f52601160045260245ffd5b5f612c2382612560565b91505f8203612c3557612c34612bec565b5b600182039050919050565b5f612c4a82612560565b9150612c5583612560565b9250828203905081811115612c6d57612c6c612bec565b5b92915050565b7f4e487b71000000000000000000000000000000000000000000000000000000005f52603260045260245ffd5b5f612caa82612560565b9150612cb583612560565b9250828201905080821115612ccd57612ccc612bec565b5b92915050565b7f4e487b71000000000000000000000000000000000000000000000000000000005f52603160045260245ffd5b5f604082019050612d135f830185612999565b612d206020830184612999565b9392505050565b5f604082019050612d3a5f8301856125be565b612d4760208301846125be565b9392505050565b5f612d5882612560565b91507fffffffffffffffffffffffffffffffffffffffffffffffffffffffffffffffff8203612d8a57612d89612bec565b5b600182019050919050565b5f604082019050612da85f8301856125d8565b612db56020830184612a84565b9392505050565b5f612dc682612560565b9150612dd183612560565b9250828202612ddf81612560565b91508282048414831517612df657612df5612bec565b5b5092915050565b7f4e487b71000000000000000000000000000000000000000000000000000000005f52601260045260245ffd5b5f612e3482612560565b9150612e3f83612560565b925082612e4f57612e4e612dfd565b5b828204905092915050565b612e6381612734565b82525050565b5f604082019050612e7c5f830185612e5a565b612e8960208301846127f8565b939250505056fea26469706673582212200c9ad9e50ef6d7df0cb672c2ef95c9055c4f2fa279f0944dfef719d91bb8dc1f64736f6c634300081c0033",
  "linkReferences": {},
  "deployedLinkReferences": {},
  "immutableReferences": {},
  "inputSourceName": "project/contracts/PricingDAO.sol",
  "buildInfoId": "solc-0_8_28-cfdc822886425acf3a1743e6fea6ad85e41c01f0"
}